{
  "_format": "hh-sol-artifact-1",
  "contractName": "Soulbound",
  "sourceName": "contracts/soulbound.sol",
  "abi": [
    {
      "inputs": [],
      "stateMutability": "nonpayable",
      "type": "constructor"
    },
    {
      "anonymous": false,
      "inputs": [
        {
          "indexed": true,
          "internalType": "address",
          "name": "owner",
          "type": "address"
        },
        {
          "indexed": true,
          "internalType": "address",
          "name": "approved",
          "type": "address"
        },
        {
          "indexed": true,
          "internalType": "uint256",
          "name": "tokenId",
          "type": "uint256"
        }
      ],
      "name": "Approval",
      "type": "event"
    },
    {
      "anonymous": false,
      "inputs": [
        {
          "indexed": true,
          "internalType": "address",
          "name": "owner",
          "type": "address"
        },
        {
          "indexed": true,
          "internalType": "address",
          "name": "operator",
          "type": "address"
        },
        {
          "indexed": false,
          "internalType": "bool",
          "name": "approved",
          "type": "bool"
        }
      ],
      "name": "ApprovalForAll",
      "type": "event"
    },
    {
      "anonymous": false,
      "inputs": [
        {
          "indexed": true,
          "internalType": "address",
          "name": "from",
          "type": "address"
        },
        {
          "indexed": true,
          "internalType": "address",
          "name": "to",
          "type": "address"
        },
        {
          "indexed": true,
          "internalType": "uint256",
          "name": "tokenId",
          "type": "uint256"
        }
      ],
      "name": "Transfer",
      "type": "event"
    },
    {
      "anonymous": false,
      "inputs": [
        {
          "indexed": false,
          "internalType": "address",
          "name": "to",
          "type": "address"
        },
        {
          "indexed": false,
          "internalType": "uint256",
          "name": "tokenId",
          "type": "uint256"
        }
      ],
      "name": "sbtminted",
      "type": "event"
    },
    {
      "inputs": [
        {
          "internalType": "address",
          "name": "to",
          "type": "address"
        },
        {
          "internalType": "uint256",
          "name": "tokenId",
          "type": "uint256"
        }
      ],
      "name": "approve",
      "outputs": [],
      "stateMutability": "nonpayable",
      "type": "function"
    },
    {
      "inputs": [
        {
          "internalType": "address",
          "name": "owner",
          "type": "address"
        }
      ],
      "name": "balanceOf",
      "outputs": [
        {
          "internalType": "uint256",
          "name": "",
          "type": "uint256"
        }
      ],
      "stateMutability": "view",
      "type": "function"
    },
    {
      "inputs": [
        {
          "internalType": "uint256",
          "name": "tokenId",
          "type": "uint256"
        }
      ],
      "name": "getApproved",
      "outputs": [
        {
          "internalType": "address",
          "name": "",
          "type": "address"
        }
      ],
      "stateMutability": "view",
      "type": "function"
    },
    {
      "inputs": [
        {
          "internalType": "address",
          "name": "owner",
          "type": "address"
        },
        {
          "internalType": "address",
          "name": "operator",
          "type": "address"
        }
      ],
      "name": "isApprovedForAll",
      "outputs": [
        {
          "internalType": "bool",
          "name": "",
          "type": "bool"
        }
      ],
      "stateMutability": "view",
      "type": "function"
    },
    {
      "inputs": [],
      "name": "name",
      "outputs": [
        {
          "internalType": "string",
          "name": "",
          "type": "string"
        }
      ],
      "stateMutability": "view",
      "type": "function"
    },
    {
      "inputs": [
        {
          "internalType": "uint256",
          "name": "tokenId",
          "type": "uint256"
        }
      ],
      "name": "ownerOf",
      "outputs": [
        {
          "internalType": "address",
          "name": "",
          "type": "address"
        }
      ],
      "stateMutability": "view",
      "type": "function"
    },
    {
      "inputs": [
        {
          "internalType": "address",
          "name": "to",
          "type": "address"
        },
        {
          "internalType": "string",
          "name": "_tokenURI",
          "type": "string"
        }
      ],
      "name": "safeMint",
      "outputs": [
        {
          "internalType": "uint256",
          "name": "",
          "type": "uint256"
        }
      ],
      "stateMutability": "nonpayable",
      "type": "function"
    },
    {
      "inputs": [
        {
          "internalType": "address",
          "name": "from",
          "type": "address"
        },
        {
          "internalType": "address",
          "name": "to",
          "type": "address"
        },
        {
          "internalType": "uint256",
          "name": "tokenId",
          "type": "uint256"
        }
      ],
      "name": "safeTransferFrom",
      "outputs": [],
      "stateMutability": "nonpayable",
      "type": "function"
    },
    {
      "inputs": [
        {
          "internalType": "address",
          "name": "from",
          "type": "address"
        },
        {
          "internalType": "address",
          "name": "to",
          "type": "address"
        },
        {
          "internalType": "uint256",
          "name": "tokenId",
          "type": "uint256"
        },
        {
          "internalType": "bytes",
          "name": "_data",
          "type": "bytes"
        }
      ],
      "name": "safeTransferFrom",
      "outputs": [],
      "stateMutability": "nonpayable",
      "type": "function"
    },
    {
      "inputs": [
        {
          "internalType": "address",
          "name": "operator",
          "type": "address"
        },
        {
          "internalType": "bool",
          "name": "approved",
          "type": "bool"
        }
      ],
      "name": "setApprovalForAll",
      "outputs": [],
      "stateMutability": "nonpayable",
      "type": "function"
    },
    {
      "inputs": [
        {
          "internalType": "bytes4",
          "name": "interfaceId",
          "type": "bytes4"
        }
      ],
      "name": "supportsInterface",
      "outputs": [
        {
          "internalType": "bool",
          "name": "",
          "type": "bool"
        }
      ],
      "stateMutability": "view",
      "type": "function"
    },
    {
      "inputs": [],
      "name": "symbol",
      "outputs": [
        {
          "internalType": "string",
          "name": "",
          "type": "string"
        }
      ],
      "stateMutability": "view",
      "type": "function"
    },
    {
      "inputs": [
        {
          "internalType": "uint256",
          "name": "tokenId",
          "type": "uint256"
        }
      ],
      "name": "tokenURI",
      "outputs": [
        {
          "internalType": "string",
          "name": "",
          "type": "string"
        }
      ],
      "stateMutability": "view",
      "type": "function"
    },
    {
      "inputs": [
        {
          "internalType": "address",
          "name": "from",
          "type": "address"
        },
        {
          "internalType": "address",
          "name": "to",
          "type": "address"
        },
        {
          "internalType": "uint256",
          "name": "tokenId",
          "type": "uint256"
        }
      ],
      "name": "transferFrom",
      "outputs": [],
      "stateMutability": "nonpayable",
      "type": "function"
    }
  ],
  "bytecode": "0x60806040523480156200001157600080fd5b506040518060400160405280600981526020017f536f756c426f756e6400000000000000000000000000000000000000000000008152506040518060400160405280600381526020017f5342540000000000000000000000000000000000000000000000000000000000815250816000908051906020019062000096929190620000b8565b508060019080519060200190620000af929190620000b8565b505050620001cd565b828054620000c69062000168565b90600052602060002090601f016020900481019282620000ea576000855562000136565b82601f106200010557805160ff191683800117855562000136565b8280016001018555821562000136579182015b828111156200013557825182559160200191906001019062000118565b5b50905062000145919062000149565b5090565b5b80821115620001645760008160009055506001016200014a565b5090565b600060028204905060018216806200018157607f821691505b602082108114156200019857620001976200019e565b5b50919050565b7f4e487b7100000000000000000000000000000000000000000000000000000000600052602260045260246000fd5b612d2980620001dd6000396000f3fe608060405234801561001057600080fd5b50600436106100ea5760003560e01c806370a082311161008c578063b88d4fde11610066578063b88d4fde1461025b578063c87b56dd14610277578063d204c45e146102a7578063e985e9c5146102d7576100ea565b806370a08231146101f157806395d89b4114610221578063a22cb4651461023f576100ea565b8063095ea7b3116100c8578063095ea7b31461016d57806323b872dd1461018957806342842e0e146101a55780636352211e146101c1576100ea565b806301ffc9a7146100ef57806306fdde031461011f578063081812fc1461013d575b600080fd5b61010960048036038101906101049190611d41565b610307565b6040516101169190612193565b60405180910390f35b6101276103e9565b60405161013491906121ae565b60405180910390f35b61015760048036038101906101529190611d93565b61047b565b6040516101649190612103565b60405180910390f35b61018760048036038101906101829190611d05565b610500565b005b6101a3600480360381019061019e9190611bab565b610618565b005b6101bf60048036038101906101ba9190611bab565b610678565b005b6101db60048036038101906101d69190611d93565b610698565b6040516101e89190612103565b60405180910390f35b61020b60048036038101906102069190611b46565b61074a565b60405161021891906123f0565b60405180910390f35b610229610802565b60405161023691906121ae565b60405180910390f35b61025960048036038101906102549190611c75565b610894565b005b61027560048036038101906102709190611bfa565b610a15565b005b610291600480360381019061028c9190611d93565b610a77565b60405161029e91906121ae565b60405180910390f35b6102c160048036038101906102bc9190611cb1565b610a89565b6040516102ce91906123f0565b60405180910390f35b6102f160048036038101906102ec9190611b6f565b610b03565b6040516102fe9190612193565b60405180910390f35b60007f80ac58cd000000000000000000000000000000000000000000000000000000007bffffffffffffffffffffffffffffffffffffffffffffffffffffffff1916827bffffffffffffffffffffffffffffffffffffffffffffffffffffffff191614806103d257507f5b5e139f000000000000000000000000000000000000000000000000000000007bffffffffffffffffffffffffffffffffffffffffffffffffffffffff1916827bffffffffffffffffffffffffffffffffffffffffffffffffffffffff1916145b806103e257506103e182610b97565b5b9050919050565b6060600080546103f890612646565b80601f016020809104026020016040519081016040528092919081815260200182805461042490612646565b80156104715780601f1061044657610100808354040283529160200191610471565b820191906000526020600020905b81548152906001019060200180831161045457829003601f168201915b5050505050905090565b600061048682610c01565b6104c5576040517f08c379a00000000000000000000000000000000000000000000000000000000081526004016104bc90612350565b60405180910390fd5b6004600083815260200190815260200160002060009054906101000a900473ffffffffffffffffffffffffffffffffffffffff169050919050565b600061050b82610698565b90508073ffffffffffffffffffffffffffffffffffffffff168373ffffffffffffffffffffffffffffffffffffffff16141561057c576040517f08c379a0000000000000000000000000000000000000000000000000000000008152600401610573906123b0565b60405180910390fd5b8073ffffffffffffffffffffffffffffffffffffffff1661059b610c6d565b73ffffffffffffffffffffffffffffffffffffffff1614806105ca57506105c9816105c4610c6d565b610b03565b5b610609576040517f08c379a000000000000000000000000000000000000000000000000000000000815260040161060090612290565b60405180910390fd5b6106138383610c75565b505050565b610629610623610c6d565b82610d2e565b610668576040517f08c379a000000000000000000000000000000000000000000000000000000000815260040161065f906123d0565b60405180910390fd5b610673838383610e0c565b505050565b61069383838360405180602001604052806000815250610a15565b505050565b6000806002600084815260200190815260200160002060009054906101000a900473ffffffffffffffffffffffffffffffffffffffff169050600073ffffffffffffffffffffffffffffffffffffffff168173ffffffffffffffffffffffffffffffffffffffff161415610741576040517f08c379a0000000000000000000000000000000000000000000000000000000008152600401610738906122d0565b60405180910390fd5b80915050919050565b60008073ffffffffffffffffffffffffffffffffffffffff168273ffffffffffffffffffffffffffffffffffffffff1614156107bb576040517f08c379a00000000000000000000000000000000000000000000000000000000081526004016107b2906122b0565b60405180910390fd5b600360008373ffffffffffffffffffffffffffffffffffffffff1673ffffffffffffffffffffffffffffffffffffffff168152602001908152602001600020549050919050565b60606001805461081190612646565b80601f016020809104026020016040519081016040528092919081815260200182805461083d90612646565b801561088a5780601f1061085f5761010080835404028352916020019161088a565b820191906000526020600020905b81548152906001019060200180831161086d57829003601f168201915b5050505050905090565b61089c610c6d565b73ffffffffffffffffffffffffffffffffffffffff168273ffffffffffffffffffffffffffffffffffffffff16141561090a576040517f08c379a000000000000000000000000000000000000000000000000000000000815260040161090190612230565b60405180910390fd5b8060056000610917610c6d565b73ffffffffffffffffffffffffffffffffffffffff1673ffffffffffffffffffffffffffffffffffffffff16815260200190815260200160002060008473ffffffffffffffffffffffffffffffffffffffff1673ffffffffffffffffffffffffffffffffffffffff16815260200190815260200160002060006101000a81548160ff0219169083151502179055508173ffffffffffffffffffffffffffffffffffffffff166109c4610c6d565b73ffffffffffffffffffffffffffffffffffffffff167f17307eab39ab6107e8899845ad3d59bd9653f200f220920489ca2b5937696c3183604051610a099190612193565b60405180910390a35050565b610a26610a20610c6d565b83610d2e565b610a65576040517f08c379a0000000000000000000000000000000000000000000000000000000008152600401610a5c906123d0565b60405180910390fd5b610a7184848484611068565b50505050565b6060610a82826110c4565b9050919050565b6000600160076000828254610a9e91906124d5565b92505081905550610ab183600754611216565b610abd60075483611234565b7f7cb3232903b83fb522219c27c350cb6f50501fdc4679417a935d2f16fe773e7d83600754604051610af092919061216a565b60405180910390a1600754905092915050565b6000600560008473ffffffffffffffffffffffffffffffffffffffff1673ffffffffffffffffffffffffffffffffffffffff16815260200190815260200160002060008373ffffffffffffffffffffffffffffffffffffffff1673ffffffffffffffffffffffffffffffffffffffff16815260200190815260200160002060009054906101000a900460ff16905092915050565b60007f01ffc9a7000000000000000000000000000000000000000000000000000000007bffffffffffffffffffffffffffffffffffffffffffffffffffffffff1916827bffffffffffffffffffffffffffffffffffffffffffffffffffffffff1916149050919050565b60008073ffffffffffffffffffffffffffffffffffffffff166002600084815260200190815260200160002060009054906101000a900473ffffffffffffffffffffffffffffffffffffffff1673ffffffffffffffffffffffffffffffffffffffff1614159050919050565b600033905090565b816004600083815260200190815260200160002060006101000a81548173ffffffffffffffffffffffffffffffffffffffff021916908373ffffffffffffffffffffffffffffffffffffffff160217905550808273ffffffffffffffffffffffffffffffffffffffff16610ce883610698565b73ffffffffffffffffffffffffffffffffffffffff167f8c5be1e5ebec7d5bd14f71427d1e84f3dd0314c0f7b2291e5b200ac8c7c3b92560405160405180910390a45050565b6000610d3982610c01565b610d78576040517f08c379a0000000000000000000000000000000000000000000000000000000008152600401610d6f90612250565b60405180910390fd5b6000610d8383610698565b90508073ffffffffffffffffffffffffffffffffffffffff168473ffffffffffffffffffffffffffffffffffffffff161480610df257508373ffffffffffffffffffffffffffffffffffffffff16610dda8461047b565b73ffffffffffffffffffffffffffffffffffffffff16145b80610e035750610e028185610b03565b5b91505092915050565b8273ffffffffffffffffffffffffffffffffffffffff16610e2c82610698565b73ffffffffffffffffffffffffffffffffffffffff1614610e82576040517f08c379a0000000000000000000000000000000000000000000000000000000008152600401610e7990612370565b60405180910390fd5b600073ffffffffffffffffffffffffffffffffffffffff168273ffffffffffffffffffffffffffffffffffffffff161415610ef2576040517f08c379a0000000000000000000000000000000000000000000000000000000008152600401610ee990612210565b60405180910390fd5b610efd8383836112a8565b610f08600082610c75565b6001600360008573ffffffffffffffffffffffffffffffffffffffff1673ffffffffffffffffffffffffffffffffffffffff1681526020019081526020016000206000828254610f58919061255c565b925050819055506001600360008473ffffffffffffffffffffffffffffffffffffffff1673ffffffffffffffffffffffffffffffffffffffff1681526020019081526020016000206000828254610faf91906124d5565b92505081905550816002600083815260200190815260200160002060006101000a81548173ffffffffffffffffffffffffffffffffffffffff021916908373ffffffffffffffffffffffffffffffffffffffff160217905550808273ffffffffffffffffffffffffffffffffffffffff168473ffffffffffffffffffffffffffffffffffffffff167fddf252ad1be2c89b69c2b068fc378daa952ba7f163c4a11628f55a4df523b3ef60405160405180910390a4505050565b611073848484610e0c565b61107f84848484611327565b6110be576040517f08c379a00000000000000000000000000000000000000000000000000000000081526004016110b5906121d0565b60405180910390fd5b50505050565b60606110cf82610c01565b61110e576040517f08c379a000000000000000000000000000000000000000000000000000000000815260040161110590612330565b60405180910390fd5b600060066000848152602001908152602001600020805461112e90612646565b80601f016020809104026020016040519081016040528092919081815260200182805461115a90612646565b80156111a75780601f1061117c576101008083540402835291602001916111a7565b820191906000526020600020905b81548152906001019060200180831161118a57829003601f168201915b5050505050905060006111b86114be565b90506000815114156111ce578192505050611211565b6000825111156112035780826040516020016111eb9291906120df565b60405160208183030381529060405292505050611211565b61120c846114d5565b925050505b919050565b61123082826040518060200160405280600081525061157c565b5050565b61123d82610c01565b61127c576040517f08c379a0000000000000000000000000000000000000000000000000000000008152600401611273906122f0565b60405180910390fd5b806006600084815260200190815260200160002090805190602001906112a392919061196a565b505050565b600073ffffffffffffffffffffffffffffffffffffffff168373ffffffffffffffffffffffffffffffffffffffff1614611317576040517f08c379a000000000000000000000000000000000000000000000000000000000815260040161130e90612270565b60405180910390fd5b6113228383836115d7565b505050565b60006113488473ffffffffffffffffffffffffffffffffffffffff166115dc565b156114b1578373ffffffffffffffffffffffffffffffffffffffff1663150b7a02611371610c6d565b8786866040518563ffffffff1660e01b8152600401611393949392919061211e565b602060405180830381600087803b1580156113ad57600080fd5b505af19250505080156113de57506040513d601f19601f820116820180604052508101906113db9190611d6a565b60015b611461573d806000811461140e576040519150601f19603f3d011682016040523d82523d6000602084013e611413565b606091505b50600081511415611459576040517f08c379a0000000000000000000000000000000000000000000000000000000008152600401611450906121d0565b60405180910390fd5b805181602001fd5b63150b7a0260e01b7bffffffffffffffffffffffffffffffffffffffffffffffffffffffff1916817bffffffffffffffffffffffffffffffffffffffffffffffffffffffff1916149150506114b6565b600190505b949350505050565b606060405180602001604052806000815250905090565b60606114e082610c01565b61151f576040517f08c379a000000000000000000000000000000000000000000000000000000000815260040161151690612390565b60405180910390fd5b60006115296114be565b905060008151116115495760405180602001604052806000815250611574565b80611553846115ef565b6040516020016115649291906120df565b6040516020818303038152906040525b915050919050565b611586838361179c565b6115936000848484611327565b6115d2576040517f08c379a00000000000000000000000000000000000000000000000000000000081526004016115c9906121d0565b60405180910390fd5b505050565b505050565b600080823b905060008111915050919050565b60606000821415611637576040518060400160405280600181526020017f30000000000000000000000000000000000000000000000000000000000000008152509050611797565b600082905060005b60008214611669578080611652906126a9565b915050600a82611662919061252b565b915061163f565b60008167ffffffffffffffff8111156116ab577f4e487b7100000000000000000000000000000000000000000000000000000000600052604160045260246000fd5b6040519080825280601f01601f1916602001820160405280156116dd5781602001600182028036833780820191505090505b5090505b60008514611790576001826116f6919061255c565b9150600a8561170591906126f2565b603061171191906124d5565b60f81b81838151811061174d577f4e487b7100000000000000000000000000000000000000000000000000000000600052603260045260246000fd5b60200101907effffffffffffffffffffffffffffffffffffffffffffffffffffffffffffff1916908160001a905350600a85611789919061252b565b94506116e1565b8093505050505b919050565b600073ffffffffffffffffffffffffffffffffffffffff168273ffffffffffffffffffffffffffffffffffffffff16141561180c576040517f08c379a000000000000000000000000000000000000000000000000000000000815260040161180390612310565b60405180910390fd5b61181581610c01565b15611855576040517f08c379a000000000000000000000000000000000000000000000000000000000815260040161184c906121f0565b60405180910390fd5b611861600083836112a8565b6001600360008473ffffffffffffffffffffffffffffffffffffffff1673ffffffffffffffffffffffffffffffffffffffff16815260200190815260200160002060008282546118b191906124d5565b92505081905550816002600083815260200190815260200160002060006101000a81548173ffffffffffffffffffffffffffffffffffffffff021916908373ffffffffffffffffffffffffffffffffffffffff160217905550808273ffffffffffffffffffffffffffffffffffffffff16600073ffffffffffffffffffffffffffffffffffffffff167fddf252ad1be2c89b69c2b068fc378daa952ba7f163c4a11628f55a4df523b3ef60405160405180910390a45050565b82805461197690612646565b90600052602060002090601f01602090048101928261199857600085556119df565b82601f106119b157805160ff19168380011785556119df565b828001600101855582156119df579182015b828111156119de5782518255916020019190600101906119c3565b5b5090506119ec91906119f0565b5090565b5b80821115611a095760008160009055506001016119f1565b5090565b6000611a20611a1b84612430565b61240b565b905082815260208101848484011115611a3857600080fd5b611a43848285612604565b509392505050565b6000611a5e611a5984612461565b61240b565b905082815260208101848484011115611a7657600080fd5b611a81848285612604565b509392505050565b600081359050611a9881612c97565b92915050565b600081359050611aad81612cae565b92915050565b600081359050611ac281612cc5565b92915050565b600081519050611ad781612cc5565b92915050565b600082601f830112611aee57600080fd5b8135611afe848260208601611a0d565b91505092915050565b600082601f830112611b1857600080fd5b8135611b28848260208601611a4b565b91505092915050565b600081359050611b4081612cdc565b92915050565b600060208284031215611b5857600080fd5b6000611b6684828501611a89565b91505092915050565b60008060408385031215611b8257600080fd5b6000611b9085828601611a89565b9250506020611ba185828601611a89565b9150509250929050565b600080600060608486031215611bc057600080fd5b6000611bce86828701611a89565b9350506020611bdf86828701611a89565b9250506040611bf086828701611b31565b9150509250925092565b60008060008060808587031215611c1057600080fd5b6000611c1e87828801611a89565b9450506020611c2f87828801611a89565b9350506040611c4087828801611b31565b925050606085013567ffffffffffffffff811115611c5d57600080fd5b611c6987828801611add565b91505092959194509250565b60008060408385031215611c8857600080fd5b6000611c9685828601611a89565b9250506020611ca785828601611a9e565b9150509250929050565b60008060408385031215611cc457600080fd5b6000611cd285828601611a89565b925050602083013567ffffffffffffffff811115611cef57600080fd5b611cfb85828601611b07565b9150509250929050565b60008060408385031215611d1857600080fd5b6000611d2685828601611a89565b9250506020611d3785828601611b31565b9150509250929050565b600060208284031215611d5357600080fd5b6000611d6184828501611ab3565b91505092915050565b600060208284031215611d7c57600080fd5b6000611d8a84828501611ac8565b91505092915050565b600060208284031215611da557600080fd5b6000611db384828501611b31565b91505092915050565b611dc581612590565b82525050565b611dd4816125a2565b82525050565b6000611de582612492565b611def81856124a8565b9350611dff818560208601612613565b611e08816127df565b840191505092915050565b6000611e1e8261249d565b611e2881856124b9565b9350611e38818560208601612613565b611e41816127df565b840191505092915050565b6000611e578261249d565b611e6181856124ca565b9350611e71818560208601612613565b80840191505092915050565b6000611e8a6032836124b9565b9150611e95826127f0565b604082019050919050565b6000611ead601c836124b9565b9150611eb88261283f565b602082019050919050565b6000611ed06024836124b9565b9150611edb82612868565b604082019050919050565b6000611ef36019836124b9565b9150611efe826128b7565b602082019050919050565b6000611f16602c836124b9565b9150611f21826128e0565b604082019050919050565b6000611f396016836124b9565b9150611f448261292f565b602082019050919050565b6000611f5c6038836124b9565b9150611f6782612958565b604082019050919050565b6000611f7f602a836124b9565b9150611f8a826129a7565b604082019050919050565b6000611fa26029836124b9565b9150611fad826129f6565b604082019050919050565b6000611fc5602e836124b9565b9150611fd082612a45565b604082019050919050565b6000611fe86020836124b9565b9150611ff382612a94565b602082019050919050565b600061200b6031836124b9565b915061201682612abd565b604082019050919050565b600061202e602c836124b9565b915061203982612b0c565b604082019050919050565b60006120516029836124b9565b915061205c82612b5b565b604082019050919050565b6000612074602f836124b9565b915061207f82612baa565b604082019050919050565b60006120976021836124b9565b91506120a282612bf9565b604082019050919050565b60006120ba6031836124b9565b91506120c582612c48565b604082019050919050565b6120d9816125fa565b82525050565b60006120eb8285611e4c565b91506120f78284611e4c565b91508190509392505050565b60006020820190506121186000830184611dbc565b92915050565b60006080820190506121336000830187611dbc565b6121406020830186611dbc565b61214d60408301856120d0565b818103606083015261215f8184611dda565b905095945050505050565b600060408201905061217f6000830185611dbc565b61218c60208301846120d0565b9392505050565b60006020820190506121a86000830184611dcb565b92915050565b600060208201905081810360008301526121c88184611e13565b905092915050565b600060208201905081810360008301526121e981611e7d565b9050919050565b6000602082019050818103600083015261220981611ea0565b9050919050565b6000602082019050818103600083015261222981611ec3565b9050919050565b6000602082019050818103600083015261224981611ee6565b9050919050565b6000602082019050818103600083015261226981611f09565b9050919050565b6000602082019050818103600083015261228981611f2c565b9050919050565b600060208201905081810360008301526122a981611f4f565b9050919050565b600060208201905081810360008301526122c981611f72565b9050919050565b600060208201905081810360008301526122e981611f95565b9050919050565b6000602082019050818103600083015261230981611fb8565b9050919050565b6000602082019050818103600083015261232981611fdb565b9050919050565b6000602082019050818103600083015261234981611ffe565b9050919050565b6000602082019050818103600083015261236981612021565b9050919050565b6000602082019050818103600083015261238981612044565b9050919050565b600060208201905081810360008301526123a981612067565b9050919050565b600060208201905081810360008301526123c98161208a565b9050919050565b600060208201905081810360008301526123e9816120ad565b9050919050565b600060208201905061240560008301846120d0565b92915050565b6000612415612426565b90506124218282612678565b919050565b6000604051905090565b600067ffffffffffffffff82111561244b5761244a6127b0565b5b612454826127df565b9050602081019050919050565b600067ffffffffffffffff82111561247c5761247b6127b0565b5b612485826127df565b9050602081019050919050565b600081519050919050565b600081519050919050565b600082825260208201905092915050565b600082825260208201905092915050565b600081905092915050565b60006124e0826125fa565b91506124eb836125fa565b9250827fffffffffffffffffffffffffffffffffffffffffffffffffffffffffffffffff038211156125205761251f612723565b5b828201905092915050565b6000612536826125fa565b9150612541836125fa565b92508261255157612550612752565b5b828204905092915050565b6000612567826125fa565b9150612572836125fa565b92508282101561258557612584612723565b5b828203905092915050565b600061259b826125da565b9050919050565b60008115159050919050565b60007fffffffff0000000000000000000000000000000000000000000000000000000082169050919050565b600073ffffffffffffffffffffffffffffffffffffffff82169050919050565b6000819050919050565b82818337600083830152505050565b60005b83811015612631578082015181840152602081019050612616565b83811115612640576000848401525b50505050565b6000600282049050600182168061265e57607f821691505b6020821081141561267257612671612781565b5b50919050565b612681826127df565b810181811067ffffffffffffffff821117156126a05761269f6127b0565b5b80604052505050565b60006126b4826125fa565b91507fffffffffffffffffffffffffffffffffffffffffffffffffffffffffffffffff8214156126e7576126e6612723565b5b600182019050919050565b60006126fd826125fa565b9150612708836125fa565b92508261271857612717612752565b5b828206905092915050565b7f4e487b7100000000000000000000000000000000000000000000000000000000600052601160045260246000fd5b7f4e487b7100000000000000000000000000000000000000000000000000000000600052601260045260246000fd5b7f4e487b7100000000000000000000000000000000000000000000000000000000600052602260045260246000fd5b7f4e487b7100000000000000000000000000000000000000000000000000000000600052604160045260246000fd5b6000601f19601f8301169050919050565b7f4552433732313a207472616e7366657220746f206e6f6e20455243373231526560008201527f63656976657220696d706c656d656e7465720000000000000000000000000000602082015250565b7f4552433732313a20746f6b656e20616c7265616479206d696e74656400000000600082015250565b7f4552433732313a207472616e7366657220746f20746865207a65726f2061646460008201527f7265737300000000000000000000000000000000000000000000000000000000602082015250565b7f4552433732313a20617070726f766520746f2063616c6c657200000000000000600082015250565b7f4552433732313a206f70657261746f7220717565727920666f72206e6f6e657860008201527f697374656e7420746f6b656e0000000000000000000000000000000000000000602082015250565b7f546f6b656e206e6f74207472616e7366657261626c6500000000000000000000600082015250565b7f4552433732313a20617070726f76652063616c6c6572206973206e6f74206f7760008201527f6e6572206e6f7220617070726f76656420666f7220616c6c0000000000000000602082015250565b7f4552433732313a2062616c616e636520717565727920666f7220746865207a6560008201527f726f206164647265737300000000000000000000000000000000000000000000602082015250565b7f4552433732313a206f776e657220717565727920666f72206e6f6e657869737460008201527f656e7420746f6b656e0000000000000000000000000000000000000000000000602082015250565b7f45524337323155524953746f726167653a2055524920736574206f66206e6f6e60008201527f6578697374656e7420746f6b656e000000000000000000000000000000000000602082015250565b7f4552433732313a206d696e7420746f20746865207a65726f2061646472657373600082015250565b7f45524337323155524953746f726167653a2055524920717565727920666f722060008201527f6e6f6e6578697374656e7420746f6b656e000000000000000000000000000000602082015250565b7f4552433732313a20617070726f76656420717565727920666f72206e6f6e657860008201527f697374656e7420746f6b656e0000000000000000000000000000000000000000602082015250565b7f4552433732313a207472616e73666572206f6620746f6b656e2074686174206960008201527f73206e6f74206f776e0000000000000000000000000000000000000000000000602082015250565b7f4552433732314d657461646174613a2055524920717565727920666f72206e6f60008201527f6e6578697374656e7420746f6b656e0000000000000000000000000000000000602082015250565b7f4552433732313a20617070726f76616c20746f2063757272656e74206f776e6560008201527f7200000000000000000000000000000000000000000000000000000000000000602082015250565b7f4552433732313a207472616e736665722063616c6c6572206973206e6f74206f60008201527f776e6572206e6f7220617070726f766564000000000000000000000000000000602082015250565b612ca081612590565b8114612cab57600080fd5b50565b612cb7816125a2565b8114612cc257600080fd5b50565b612cce816125ae565b8114612cd957600080fd5b50565b612ce5816125fa565b8114612cf057600080fd5b5056fea2646970667358221220dc34f0691b4ad6d612e17b9ad8972957933b9e3fdf211ced03f3997bce11e2e964736f6c63430008040033",
  "linkReferences": {},
  "deployedLinkReferences": {}
}